:020000040800F2
:100000007821002001010008FD390008CB0100081B
:10001000F9390008950D000821440008000000008F
:100020000000000000000000000000000B3D000880
:10003000990D00080000000053010008953D0008DC
:100040001B0100081B0100081B010008853B00087C
:100050001B0100081B0100081B0100081B01000810
:100060001B0100081B0100081B0100081B01000800
:100070001B0100081B0100081B0100081B010008F0
:100080001B0100081B0100081B0100081B010008E0
:100090001B0100081B0100081B0100081B010008D0
:1000A0001B0100081B0100081B0100081B010008C0
:1000B0001B0100081B0100081B0100081B010008B0
:1000C0001B0100081B0100081B0100081B010008A0
:1000D0001B0100085D430008B94300081B0100082C
:1000E0009B0D00081B0100081B010008DFF80CD065
:1000F00000F02EFD004800478B0D000878210020FD
:100100000648804706480047FEE7FEE7FEE7FEE7B1
:10011000FEE7FEE7FEE7FEE7FEE7FEE7E93E000852
:10012000ED000008EFF3108072B6704780F310887E
:100130007047334A1368012B04D04FF0010313605A
:10014000304A1060304A116030484FF080510160F1
:100150007047EFF3108272B62948016891B14FF0F1
:10016000000101602748016829B1EFF3098121E905
:10017000F00F00680160244909680968B1E8F00FD0
:1001800081F3098882F310884EF0040E70471E49EF
:1001900008601C494FF00000086019494FF0010049
:1001A00008601B484FF47F01D0F8002041EA0201AB
:1001B000016016484FF080510160164800680068E1
:1001C00080F3088861B662B670471EF0040F0CBF5A
:1001D000EFF30880EFF3098020E9F00F40F804ED19
:1001E0001EF0040F0CBF80F3088880F3098800B567
:1001F00007F01AFB5DF804EB4EF0040E70470000A8
:10020000340100202C0100203001002004ED00E02A
:1002100020ED00E008ED00E0202A04DB203A21FA7E
:1002200002F00021704721FA02F3D040C2F120020F
:100230009140084319467047A0F16101192900D87F
:100240002038704738B5D0E90221491E01EB410141
:1002500002EBC1014268C1EB011102EB81010268AE
:10026000C1EB011102EB8102D0E9043101EB410144
:1002700003EB81013023A1F5527191FBF3F4174D8B
:100280006C4302EBC41291FBF3F403FB14110092D4
:100290001A2902DB124B1A4400920C2291FBF2F352
:1002A000104C6343009C04EBC313009391FBF2F3E7
:1002B00002FB13110C4A08E0491E40F2A324535CD0
:1002C0006343009C04EBC31300930029F4DC014654
:1002D000684600F0CFF9009838BD00003F0C0F00D1
:1002E0008051010067C20300F694000840EA010350
:1002F0009B0703D009E008C9121F08C0042AFAD2DC
:1003000003E011F8013B00F8013B521EF9D270479F
:10031000D2B201E000F8012B491EFBD27047002247
:10032000F6E710B513460A4604461946FFF7F0FFF4
:10033000204610BD421E12F8013F002BFBD111F8E0
:10034000013B02F8013B002BF9D1704730B505465F
:100350002A460B4612F8010B13F8014B08B1A042D4
:10036000F8D01CB1002802D06D1CF1E7284630BD42
:1003700010B5044604E00B7800F8013B03B1491CBA
:10038000521EF8D2204610BD421C10F8011B002955
:10039000FBD1801A7047034611F8012B00F8012B9E
:1003A000002AF9D11846704730B5054600200346AB
:1003B00000E05B1C934205D2EC5CC85C201A01D1C2
:1003C000002CF6D130BD70B5064604F073F8046811
:1003D00005460A220021304600F092F92C6070BDDB
:1003E000F0B480EA0102D40F4200B2EB410F02D216
:1003F0000246084611464A0042D0C30DDDB2C1F3A1
:10040000C752AD1A202D35DAC1F3160141F40002AE
:1004100004B15242C5F1200602FA06F12A41104405
:10042000B3EBD05F23D0C4B1012DA0EBC35009DCE6
:10043000F0BC4FF0004202EAC352DBB200F500000C
:1004400000F09FB9400000F1807000EBC350A0F1B4
:10045000807040EAD170490009E0490841EAC07162
:10046000A0EBC35000F50000400800EBC350F0BC07
:1004700000F07EB96142012202EB4101001BF6E768
:10048000F0BC704781F00041AAE780F00040A7E788
:1004900080EA010210B502F00043400022D04A0079
:1004A0001FD0010E01EB1261C0F35600C2F35602D9
:1004B00040F4000042F40002A0FB022000047F3957
:1004C000140400D0401C50EA124001D44000491EE0
:1004D000C2B20C0604EBD010401C4008802A02D0A7
:1004E00003E0002010BD20F00100002900DA002008
:1004F000184310BD30B480EA010202F0004530F02C
:10050000004221F0004013D090B1C30DD40DC2F3CE
:100510001601C0F31600E41A41F4000140F4000291
:100520007D34914201D3641C00E04900002C02DAC2
:1005300030BC002070474FF400000023914201D3EB
:10054000891A034340084FEA4101F7D151B1914262
:1005500002D14FF0004105E002D24FF0010101E06D
:100560006FF0010103EBC450284430BC00F000B927
:10057000C10F80EAE0700844CA079623002100F00A
:1005800000B996230022114600F0FBB820F000408D
:10059000C10DC0F3160040F400007F2901DA0020ED
:1005A0007047962903DCC1F19601C840704796391F
:1005B0008840704700F0004230F000400AD0C10D82
:1005C00001F56071C0F3160042EA0151C20840070C
:1005D0001143704700200146704730B50B46014675
:1005E00000202022012409E021FA02F59D4205D3D2
:1005F00003FA02F5491B04FA02F52844151EA2F17C
:100600000102F1DC30BD2DE9F05F05460020924685
:100610009B4688460646814640241BE028464146C4
:1006200047462246FFF7F8FD53465A46C01A914105
:1006300010D311461846224600F09CFA2D1A67EB9B
:1006400001084F4622460120002100F093FA17EBE3
:1006500000094E41201EA4F10104DFDC484631466A
:100660002A464346BDE8F09F014900F003B8000068
:100670004C19002010B500683C22B0FBF2F302FBDD
:100680001303B0FBF2F00B60B0FBF2F302FB1303B9
:10069000B0FBF2F018224B60B0FBF2F302FB130345
:1006A000B0FBF2F0021D8B600723B2FBF3F403FBF7
:1006B0001422800040F2B55300F66C308A61B0FB22
:1006C000F3F2B0FBF3F403FB1400443280084A61F8
:1006D000C8613B2802D3920700D0401C0022074C7F
:1006E00013460A61E25C824203D8801A5B1C0B61EC
:1006F000F8E7401CC860084610BD000002950008DD
:100700002DE9F04791460F4680460446002614F82E
:10071000015B2DB100F050FA0068405DC007F6D1D2
:100720002B2D02D02D2D18D0641E4A463946204666
:1007300000F046FA27B13968A14201D1C7F800801C
:1007400071054FF002040BD54042002803DD03F091
:10075000B1FE0460A007BDE8F08746F48066E4E7D8
:100760000028F8DA03F0A6FE04606FF00040F2E71C
:100770000029A8BF7047401C490008BF20F00100B5
:10078000704710B4B0FA80FC00FA0CF050EA010493
:1007900004BF10BC704749B1CCF1200421FA04F425
:1007A00011FA0CF118BF012121430843A3EB0C01FE
:1007B000CB1D4FEA00614FEA102042BF002010BC61
:1007C000704700EBC35010440029A4BF10BC704711
:1007D000401C490008BF20F0010010BC70472DE903
:1007E000FE4F804681EA0300C00F0C46009021F0C6
:1007F000004123F00045B8EB0200A94105D2404674
:10080000214690461C460B46024623F0004010430A
:1008100047D0270DC7F30A00C3F30A510290401ACC
:10082000019040286BDAC3F3130040F4801B00985A
:10083000924620B10023D2EB030A63EB0B0B019825
:100840005946C0F14002504600F094F906460D4664
:1008500050465946019A00F09CF910EB080061419E
:10086000002487EA115284EAE7731A4340D0009AC1
:1008700062B3019A012A4FEA075215DC001B61EBB3
:1008800002014FF0004202EA0752CDE90042001C8B
:1008900041F5801132462B4600F0F0F903B0BDE877
:1008A000F08F40462146F9E7001B61EB0201001C76
:1008B00041F5801300185B412018A2F5001747EBA3
:1008C000030140EAD570B6196D4111E06D084FEA99
:1008D000360645EAC0754FEA0752001B61EB02017C
:1008E000001C41F5801149084FEA300000195141C0
:1008F00032462B4603B0BDE8F04F00F0B0B9009887
:10090000012240000023D0EB020263EBE073009869
:1009100021464FEAE074B8EB000061EB0401E9E71F
:1009200083F000435BE781F0004158E72DE9FE4F7B
:1009300081EA030404F0004421F0004100944FF0E8
:10094000000B23F0004350EA01045ED052EA030496
:100950005BD0C3F30A54C1F30A552C44A4F2F33418
:100960000194A0FB0254C1F3130141F48011C3F3BD
:10097000130343F4801301FB024400FB034E840A7B
:10098000970A44EA815447EA8357A4FB0768029513
:100990008D0A05FB07854FEA932C04FB0C542705B1
:1009A000029D4FEA065847EA1637B5EB08056EEB8D
:1009B000070C870E920E47EA811742EA8312A7FBC3
:1009C0000201B6EB0B0164EB00042B0D43EA0C3380
:1009D0005E1844EB1C50DA465146E7FB0201C5F3B2
:1009E00013044FEA0B3343EA14534FEA0432019CD9
:1009F00043EA0603A4F10C040294009CCDE900B480
:100A000000F03CF903B0BDE8F08F00200146F9E7A3
:100A10002DE9F04D81EA030404F0004B21F000457C
:100A200014464FF0000A23F0004150EA050220D09E
:100A300054EA01021DD0C5F30A570246C5F3130359
:100A4000C1F31300C1F30A5640F4801543F4801338
:100A5000A7EB0608101BD64608F2FD3873EB05001D
:100A600002D308F1010801E092185B41B8F1000FD0
:100A700003DA00200146BDE8F08D00204FF480111C
:100A8000064684460EE0171B73EB050705D3121BC1
:100A900063EB050306434CEA010C49084FEA3000BA
:100AA00092185B4150EA0107EDD152EA030012D0DF
:100AB00082EA040083EA0501084305D0101BAB411C
:100AC00006D20122002306E000224FF0004302E09C
:100AD0006FF0010253101AEB06004CEB085110EBBB
:100AE0000A0041EB0B01BDE8F04D00F0B8B8C1F3CE
:100AF0000A52C1F3130140F2FF3341F480119A42CC
:100B000002DA00200146704740F233439A42A2F2D3
:100B1000334202DC5242FFF77FBB00F02BB80000EB
:100B200030B5041E71F1000404DB4FF00044404274
:100B300064EB0101141E73F1000405DB1C464FF049
:100B40000043524263EB0403994208BF904230BD18
:100B5000064C074D06E0E06840F0010394E807000A
:100B600098471034AC42F6D3FFF7C4FA3097000828
:100B700050970008202A04DB203A00FA02F10020F6
:100B800070479140C2F1200320FA03F319439040CB
:100B90007047202A06DBCB17203A41FA02F043EADD
:100BA000E07306E041FA02F3D040C2F12002914026
:100BB00008431946704700000048704790950008A8
:100BC0002DE9F05F82460078002715468B460AF132
:100BD0000104B946302801D09DB113E014F8010B8F
:100BE0000127782803D0582801D045B10AE00DB17B
:100BF000102D07D10027102514F8010B02E008255D
:100C000000E00A250026B0460EE005FB080005FBC3
:100C100006F1012701EB10461FFA80F8B6F5803F78
:100C200000D3B94614F8010B294600F075F80028E6
:100C3000EBDABBF1000F05D00FB1641E00E05446A3
:100C4000CBF80040B9F1000F06D003F033FC0221CD
:100C50000160C81EBDE8F09F48EA0640FAE710B5FB
:100C6000141E73F1000408DA401C41F100019218CF
:100C70005B411A4301D120F0010010BD2DE9F04D78
:100C800092469B4611B1B1FA81F202E0B0FA80F2CD
:100C900020329046FFF76EFF04460F4640EA0A00F6
:100CA00041EA0B0153465A46084313D0114653EA12
:100CB000010019D0C8F140025046FFF7ADFA0546D1
:100CC0000E46504659464246FFF754FF084305D0AA
:100CD000012004E020463946BDE8F08D00200543A0
:100CE00046EAE0762C4337430A986305E40AA0EB12
:100CF00008000022FD0A44EA47540A3002D50020C9
:100D00000146E9E7010510196941DDE908450019C7
:100D10006941BDE8F04DA2E73A2800D2303820F012
:100D20002002412A01D3A2F13700884201D34FF0BB
:100D3000FF30704770B58C1810F8015B15F0070391
:100D400001D110F8013B2A1106D110F8012B03E064
:100D500010F8016B01F8016B5B1EF9D12B0705D46C
:100D60000023521E0DD401F8013BFAE710F8013BB5
:100D7000CB1A921C03E013F8015B01F8015B521ED1
:100D8000F9D5A142D8D3002070BD10B508F010F9F4
:100D9000002010BD00BFFEE7704710B54FF40040C3
:100DA00000F004F810BD70477047000010B504460D
:100DB00004480068204020B1024804602046FFF744
:100DC000F3FF10BD140401402DE9F847034600224B
:100DD00094466EE14FF0010808FA02F4D1F8008061
:100DE00008EA0400A0427DD1DFF8DCA2D1F804803B
:100DF000A8EB0A09D0453AD014DCB8F1030F50D063
:100E000009DCB8F1000F31D0B8F1010F1CD0B8F1F6
:100E1000020F49D120E0B8F1110F18D0B8F1120F2C
:100E200042D11EE0B9F5881F25D006DCB9F5803F18
:100E300020D0B9F5801F37D11AE0B9F5001F18D0BE
:100E4000B9F5041F30D117E0D1F80CC02DE0D1F86E
:100E50000C8008F1040C28E0D1F80C8008F1080C93
:100E600023E0D1F80C8008F10C0C1EE000BF00BF9D
:100E700000BF00BF00BF00BFD1F80880B8F1000F6D
:100E800002D14FF0040C0BE0D1F80880B8F1010F4B
:100E900003D14FF0080C1C6102E04FF0080C5C61BC
:100EA00003E04FF0000C00E000BF00BFFF2801D8B6
:100EB000984601E003F104084646FF2802D84FEAAD
:100EC000820803E0A2F108084FEA88084746D6F8EE
:100ED00000804FF00F0909FA07F928EA09080CFA0F
:100EE00007F900E088E048EA0908C6F80080D1F870
:100EF000048008F08058B8F1805F7DD100BFDFF832
:100F0000CC81D8F8188048F00108DFF8C091C9F802
:100F10001880C846D8F8188008F00108CDF800807D
:100F200000BF00BF4FEAB9384FEA920958F829507C
:100F30004FEA82784FEA18794FF00F0808FA09F85B
:100F400025EA0805DFF88881434502D14FF0000803
:100F500016E0DFF88081434502D14FF001080FE031
:100F6000DFF87481434502D14FF0020808E0DFF852
:100F70006C81434502D14FF0030801E04FF00408B3
:100F80004FEA82794FEA197908FA09F848EA050523
:100F9000DFF84C814FEA920948F82950D1F80480D3
:100FA00008F48038B8F5803F0AD1DFF83881D8F8E6
:100FB000008048EA0008DFF82C91C9F8008009E0B9
:100FC000DFF82081D8F8008028EA0008DFF81491C3
:100FD000C9F80080D1F8048008F40038B8F5003F63
:100FE00010D1DFF8008108F10408D8F8008048EA41
:100FF0000008DFF8F09000E05AE009F10409C9F8B0
:1010000000800DE0DFF8DC8008F10408D8F80080EB
:1010100028EA0008DFF8CC9009F10409C9F800803B
:10102000D1F8048008F48018B8F5801F0ED1DFF8DD
:10103000B48008F10808D8F8008048EA0008DFF812
:10104000A49009F10809C9F800800DE0DFF8948048
:1010500008F10808D8F8008028EA0008DFF8849032
:1010600009F10809C9F80080D1F8048008F40018D3
:10107000B8F5001F0ED1DFF86C8008F10C08D8F825
:10108000008048EA0008DFF85C9009F10C09C9F813
:1010900000800DE0DFF84C8008F10C08D8F80080E3
:1010A00028EA0008DFF83C9009F10C09C9F8008033
:1010B000521CD1F8008028FA02F8B8F1000F7FF432
:1010C00089AEBDE8F8870000000011100010024052
:1010D00000080140000C01400010014000140140D4
:1010E0000800014000040140024693680B400BB128
:1010F000012000E000207047C2680A400AB1416147
:1011000000E0016170470AB1016101E00B04036175
:101110007047000001480068704700007800002018
:1011200070B504460CB9012070BD94F83D0028B993
:10113000002084F83C00204600F008FB242084F8BE
:101140003D002068006820F001002168086000F080
:10115000E1FD05465C496068884206D85B488542E7
:1011600001D2012007E0002005E05948854201D264
:10117000012000E00020012800D1D5E75548B5FB4B
:10118000F0F62068406820F03F0030432168486056
:101190004D496068884201D8701C07E04FF4967092
:1011A00070434FF47A71B0FBF1F0401C2168096A7A
:1011B00021F03F0108432168086243496068884282
:1011C00014D8681E61684900B0FBF1F0401CC0F300
:1011D0000B00042801D204203DE0681E616849002C
:1011E000B0FBF1F0401CC0F30B0034E0A06838B94C
:1011F000681E616801EB4101B0FBF1F0401C0AE0A0
:10120000681E616801EBC10202EB0111B0FBF1F055
:10121000401C40F48040C0F30B0008B901201AE0E4
:10122000A06848B9681E616801EB4101B0FBF1F0AC
:10123000401CC0F30B000CE0681E616801EBC102AA
:1012400002EB0111B0FBF1F0401CC0F30B0040F4C5
:10125000804040F400402168C9694CF6FF72914318
:1012600008432168C861D4E9070108432168096877
:1012700021F0C001084321680860D4E90310084345
:101280002168896848F2FF329143084321688860E9
:10129000D4E9050108432168C96821F0FF0108432A
:1012A0002168C8602068006840F00100216808607B
:1012B00000202064202084F83D000020206384F872
:1012C0003E0000BF30E70000A086010080841E00C1
:1012D00000093D0040420F002DE9FC5F04460F4627
:1012E00090469946DDE90CAB0E9EFFF713FF0546CD
:1012F00094F83D00202872D119230122B7492046D5
:10130000009502F0E7F810B10220BDE8FC9F00BF95
:1013100094F83C00012801D10220F6E7012084F86E
:101320003C0000BF2068006800F0010028B9206878
:10133000006840F00100216808602068006820F41F
:10134000006021680860222084F83D00402084F875
:101350003E0000202064C4F824A0A4F82AB0608DC8
:1013600020859F48E0624B46424639462046CDE9FB
:10137000006501F07FFF08B10120C6E7208D88B924
:1013800000BF0020019020684069019020688069BA
:10139000019000BF00BF2068006840F40070216821
:1013A00008604BE0208D01281AD12068006820F4E5
:1013B00080602168086072B600BF0020019020683C
:1013C0004069019020688069019000BF00BF2068DB
:1013D000006840F400702168086062B62EE0FBE00F
:1013E000208D022819D12068006840F4006021682F
:1013F000086072B600BF002001902068406901902B
:1014000020688069019000BF00BF2068006820F458
:1014100080602168086062B610E02068006840F4CF
:1014200080602168086000BF00200190206840694A
:10143000019020688069019000BF00BFBDE0208D51
:10144000032870D8208D012815D12A463146204620
:1014500002F0E5F808B1012057E720680069616AE9
:101460000870606A401C6062208D401E2085608D7F
:10147000401E6085A1E0208D02282CD13346002239
:1014800058492046009502F025F808B101203CE7B4
:1014900072B62068006840F4007021680860206817
:1014A0000069616A0870606A401C6062208D401E9D
:1014B0002085608D401E608562B620680069616A83
:1014C0000870606A401C6062208D401E2085608D1F
:1014D000401E608571E03346002242492046009557
:1014E00001F0F8FF08B101200FE72068006820F440
:1014F00080602168086072B620680069616A0870BF
:10150000606A401C6062208D401E2085608D401EF8
:1015100060853346002233492046009501F0DAFF0A
:1015200010B10120F1E621E02068006840F400706D
:101530002168086020680069616A0870606A401C60
:101540006062208D401E2085608D401E608562B6E1
:1015500020680069616A0870606A401C6062208DC2
:10156000401E2085608D401E608526E02A4631465B
:10157000204602F054F808B10120C6E62068006950
:10158000616A0870606A401C6062208D401E208580
:10159000608D401E608520684069C0F3800060B1A6
:1015A00020680069616A0870606A401C6062208D72
:1015B000401E2085608D401E6085208D00287FF4B0
:1015C0003EAF202084F83D00002084F83E0000BF9C
:1015D00084F83C0000BF98E6022096E60200100066
:1015E0000000FFFF040001002DE9FC5F04460F46E8
:1015F00090469946DDE90CAB0E9EFFF78BFD054644
:1016000094F83D0020287DD1192301224D49204620
:10161000009501F05FFF10B10220BDE8FC9F00BF04
:1016200094F83C00012801D10220F6E7012084F85B
:101630003C0000BF2068006800F0010028B9206865
:10164000006840F00100216808602068006820F40C
:10165000006021680860212084F83D00402084F863
:101660003E0000202064C4F824A0A4F82AB0608DB5
:1016700020853548E0624B46424639462046CDE952
:10168000006501F093FE08B10120C6E731E02A466B
:101690003146204602F003F850B1206C042805D1F1
:1016A0002068006840F40070216808600120B4E7F9
:1016B000606A007821680861606A401C6062208D61
:1016C000401E2085608D401E608520684069C0F303
:1016D000800070B1208D60B1606A00782168086177
:1016E000606A401C6062208D401E2085608D401E17
:1016F0006085208D0028CAD12A463146204601F057
:10170000BBFE00E01CE050B1206C042805D120682D
:10171000006840F400702168086001207DE72068BF
:10172000006840F4007021680860202084F83D00C3
:10173000002084F83E0000BF84F83C0000BF6CE746
:1017400002206AE7020010000000FFFF10B586B01B
:1017500004460F492068884217D1C0200290122009
:1017600003900320059002A90A48FFF72DFB00BF54
:101770000948C06940F400100749C8610846C069BB
:1017800000F40010019000BF00BF06B010BD0000C3
:1017900000540040000C01400010024010B5084801
:1017A000006840F0100006490860032000F0A8F827
:1017B000002000F007F800F02BF8002010BD00001A
:1017C0000020024070B504460E4800784FF47A714C
:1017D000B1FBF0F00C490968B1FBF0F5284600F0C8
:1017E0009DFF08B1012070BD102C07D200222146B8
:1017F000501E00F047F80548046001E00120F2E7C0
:101800000020F0E780000020840000207C00002001
:1018100008B500BF1148806940F001000F49886198
:101820000846806900F00100009000BF00BF00BFC3
:101830000846C06940F08050C8610846C06900F0A1
:101840008050009000BF00BF00BF0549486820F0ED
:10185000E06040F00070486000BF08BD001002402A
:101860000000014001460846002809DB00F01F0384
:1018700001229A4043099B0003F1E023C3F80021B1
:1018800000BF70472DE9F05F80460D4616460027E1
:1018900002F0F4FD074639462A46334601F00700B8
:1018A000C0F1070ABAF1040F02D94FF0040A01E0AF
:1018B000C0F1070AD14600F1040ABAF1070F02D2BB
:1018C0004FF0000A01E0A0F1030AD4464FF0010AEC
:1018D0000AFA09FAAAF1010A0AEA020A0AFA0CFA51
:1018E0004FF0010B0BFA0CFBABF1010B0BEA030BF6
:1018F0004AEA0B042146404602F0C8FDBDE8F09FCD
:1019000000BF00F00702064B19684FF6FF031940AD
:10191000044B0B4343EA0221014B196000BF70479F
:101920000CED00E00000FA05012001490862704753
:1019300000000E422DE9F04385B006463BA30FCBD5
:1019400001AC0FC43DA0006800904FF000080025D6
:1019500000270024A146012E30D0022E55D0102E93
:101960005ED137484468006800F0807000B301A879
:10197000C4F38341475C04F4803070B13048406860
:10198000C0F340401DF8008004F4803040B12D4881
:10199000B0FBF8F000FB07F502E02B4807FB00F571
:1019A0002748406800F48000B0F5800F01D1A946B7
:1019B00003E068000321B0FBF1F932E02048046A3B
:1019C00004F44070B0F5807F05D104F0020010B13E
:1019D0004FF4004918E004F44070B0F5007F07D1DF
:1019E0001748406A00F0020010B149F640490BE088
:1019F00004F44070B0F5407F06D11148006800F44F
:101A0000003008B14FF224490BE000F093F90C4983
:101A10004968C1F38131491C4900B0FBF1F900E08C
:101A200000BF00BF484605B0BDE8F08302030405CF
:101A3000060708090A0B0C0D0E0F1010010200001A
:101A40000010024000127A0000093D00F8B504467B
:101A500000260025207800F0010000286BD0002728
:101A60004348C06900F0805070B900BF4048C06969
:101A700040F080503E49C8610846C06900F080507F
:101A8000009000BF00BF01273A48006800F4807052
:101A9000B0B93848006840F4807036490860FFF7F4
:101AA00039FB064606E0FFF735FB801B642801D9A9
:101AB0000320F8BD2F48006800F480700028F2D0A1
:101AC0002B48006A00F440752DB3A08800F44070E4
:101AD000A84220D02648006A20F4407501202649FB
:101AE0000860002008602248056205F0010090B1FE
:101AF000FFF710FB064608E0FFF70CFB801B41F2E6
:101B00008831884201D90320D3E71948006A00F0E0
:101B100002000028F0D01648006A20F44070616886
:101B2000084313490862012F04D10846C06920F018
:101B30008050C86100BF207800F00200022807D161
:101B40000B48406820F44040A168084308494860B9
:101B5000207800F01000102807D10548406820F4D4
:101B60008000E1680843024948600020A1E70000C6
:101B700000100240007000404004424270B504462C
:101B80000D460CB9012070BD5A48006800F00700EE
:101B9000A8420ED25748006820F007002843554954
:101BA00008600846006800F00700A84201D0012044
:101BB000E9E7207800F0020002281DD1207800F02B
:101BC0000400042805D14C48406840F4E0604A49CC
:101BD0004860207800F00800082805D14648406891
:101BE00040F46050444948604348406820F0F000A9
:101BF000A168084340494860207800F0010078B3AC
:101C00006068012806D13C48006800F4003090B9B3
:101C10000120B8E76068022806D13748006800F064
:101C2000007040B90120AEE73348006800F00200C0
:101C300008B90120A7E73048406820F00300616838
:101C400008432D494860FFF765FA064609E0FFF7AB
:101C500061FA801B41F28831884202D9032092E761
:101C600007E02548406800F00C006168B0EB810F88
:101C7000EDD12048006800F00700A8420ED91D48A9
:101C8000006820F0070028431A49086008460068E9
:101C900000F00700A84201D0012074E7207800F08E
:101CA0000400042807D11448406820F4E060E1688B
:101CB000084311494860207800F00800082808D13E
:101CC0000D48406820F46050216940EAC1000A498B
:101CD000486000F03FF808494968C1F30311074A1A
:101CE000515CC8400649086006480068FFF76AFD75
:101CF000002048E700200240001002408A920008BD
:101D0000840000207C00002001480068704700002B
:101D10008400002000B5FFF7F7FF04494968C1F3CC
:101D20000221034A515CC84000BD0000001002407F
:101D30009A92000800B5FFF7E7FF04494968C1F32C
:101D4000C221034A515CC84000BD0000001002409F
:101D50009A920008F0B585B00FF26C0C9CE8E01088
:101D600001A8A0E8E0101CA52D6800950021002224
:101D7000002300240020194D696801F00C05F5B11D
:101D8000042D02D0082D19D101E0154819E001AD4C
:101D9000C1F38346AC5D01F4803555B10F4D6D68DC
:101DA000C5F340451DF805200D4D6543B5FBF2F325
:101DB00002E00C4D04FB05F3184602E000BF0848A2
:101DC00000BF00BF05B0F0BD020304050607080907
:101DD0000A0B0C0D0E0F1010010200000010024043
:101DE00000127A0000093D00F8B504460CB9012044
:101DF000F8BD207800F00100002878D0F84840684D
:101E000000F00C0004280CD0F548406800F00C00ED
:101E1000082811D1F248406800F48030B0F5803FC6
:101E20000AD1EF48006800F4003000285FD06068F5
:101E300000285CD10120DBE700BF6068B0F5803F7F
:101E400006D1E748006840F48030E549086028E0A2
:101E5000606858B9E248006820F48030E0490860C2
:101E60000846006820F4802008601AE06068B0F539
:101E7000A02F0BD1DA48006840F48020D8490860D0
:101E80000846006840F4803008600AE0D4480068E2
:101E900020F48030D24908600846006820F4802091
:101EA000086000BF606888B1FFF734F9054606E0B6
:101EB000FFF730F9401B642801D9032098E7C84890
:101EC000006800F400300028F2D010E0FFF722F99B
:101ED000054606E0FFF71EF9401B642801D90320E0
:101EE00086E7BF48006800F400300028F2D120786F
:101EF00000F00200022857D1B948406800F00C00F9
:101F000050B1B748406800F00C00082818D1B44818
:101F1000406800F4803098B9B148006800F00200D1
:101F200020B12069012801D0012061E7AC48006898
:101F300020F0F800616940EAC100A949086033E077
:101F40002069E8B10120A7490860FFF7E3F80546DA
:101F500006E0FFF7DFF8401B022801D9032047E71E
:101F60009F48006800F002000028F2D09C480068FA
:101F700020F0F800616940EAC1009949086013E067
:101F8000002098490860FFF7C5F8054606E0FFF70E
:101F9000C1F8401B022801D9032029E790480068B6
:101FA00000F002000028F2D1207800F00800082894
:101FB0002DD1A069B8B101208B490860FFF7AAF8BC
:101FC000054606E0FFF7A6F8401B022801D90320CA
:101FD0000EE78348406A00F002000028F2D001209A
:101FE00001F00EFD13E000207F490860FFF792F832
:101FF000054606E0FFF78EF8401B022801D90320B2
:10200000F6E67748406A00F002000028F2D1207816
:1020100000F00400042873D100277148C06900F063
:10202000805070B900BF6E48C06940F080506C4964
:10203000C8610846C06900F08050009000BF00BF32
:1020400001276A48006800F48070B0B967480068EA
:1020500040F4807065490860FFF75CF8054606E0CB
:10206000FFF758F8401B642801D90320C0E65F48F9
:10207000006800F480700028F2D000BFE0680128FA
:1020800006D15748006A40F001005549086227E030
:10209000E06858B95248006A20F0010050490862CF
:1020A0000846006A20F00400086219E0E06805288C
:1020B0000BD14B48006A40F00400494908620846C9
:1020C000006A40F0010008620AE04548006A20F01A
:1020D0000100434908620846006A20F004000862D3
:1020E00000BFE068A0B1FFF715F8054609E0FFF76B
:1020F00011F8401B41F28831884202D9032077E66B
:1021000022E03748006A00F002000028EFD012E019
:10211000FFF700F8054608E0FEF7FCFF401B41F220
:102120008831884201D9032062E62D48006A00F018
:1021300002000028F0D1012F05D12948C06920F004
:1021400080502749C86100BFE069C8B3244840688F
:1021500000F00C00082860D0E069022848D1002077
:1021600020490866FEF7D6FF054606E0FEF7D2FFD7
:10217000401B022801D903203AE61948006800F004
:1021800000700028F2D1206AB0F5803F07D11448D2
:10219000406820F40030A168084311494860D4E940
:1021A000080108430E49496821F4741108430C4999
:1021B000486001200B490866FEF7ACFF054607E0C2
:1021C0003DE0FEF7A7FF401B022801D903200FE6E0
:1021D0000348006800F000700028F2D02FE00000F3
:1021E0000010024000004242800442420070004061
:1021F000002014490866FEF78DFF054606E0FEF74D
:1022000089FF401B022801D90320F1E50E48006830
:1022100000F000700028F2D111E0E069012800D13F
:10222000E6E50948466806F48031206A814204D117
:1022300006F47011606A814201D00120D8E50020C7
:10224000D6E50000000042420010024010B50346EF
:1022500000220020024A02EB81021468A0B210BDE5
:10226000006C004010B503460020034800EB8100DD
:1022700094B2046010BD0000006C0040F8B5054643
:102280000C4616460020009005B10CB90120F8BD9F
:1022900000226946284600F01AF808B10120F6E746
:1022A000287B2070E87BE070687B6070A87BA07062
:1022B0005EB1E07801F0C3FBE070607801F0BFFB35
:1022C0006070A07801F0BBFBA0700020DFE72DE973
:1022D000F04780460C46914600250026AA46002776
:1022E000B8F1000F00D014B90120BDE8F087D8F88C
:1022F00000004068C0F3800008B10120F5E74046C7
:1023000001F079FC05464FF46160B5FBF0F7B5FBD1
:10231000F0F100FB11503C21B0FBF1F060704FF484
:102320006160B5FBF0F100FB11503C21B0FBF1F214
:1023300001FB1200A070182F39D31820B7FBF0FA58
:10234000B7FBF0F100FB11702070404601F047FC34
:102350000646701C18B1AE4201D9761B01E04FF061
:10236000FF360AEB4A00C000C0EB4011C1EB002071
:10237000A5EB00152946404601F0B0FC08B101204C
:10238000B3E7701C38B12E443146404601F08FFC53
:1023900040B10120A9E73146404601F088FC08B170
:1023A0000120A2E75146404601F056FB00E02770AD
:1023B000B9F1000F0BD0207801F041FB207060785C
:1023C00001F03DFB6070A07801F039FBA0700020A7
:1023D0008BE7000070B5044600250CB9012070BDE4
:1023E000607C20B900202074204600F05BF80220B9
:1023F0006074204600F072F918B104206074012066
:10240000EDE7204601F083FB18B104206074012041
:10241000E5E72068406820F0070021684860A06870
:1024200028B11F48006820F001001D4908601C48C1
:10243000001F006820F46070A16808431849091F54
:1024400008606068401C08B1656809E00120FFF77A
:1024500071FA05461DB9042060740120BFE76D1EA6
:102460002068806820F00F0040EA154021688860ED
:102470002068C06865F30F002168C860204601F03D
:1024800063FB18B1042060740120A8E70021E17308
:1024900001216173A1730120607400209FE7000097
:1024A000306C004038B5044613492068884222D178
:1024B000FFF73AFA00BF1148C06940F000600F49C9
:1024C000C8610846C06900F00060009000BF00BF0E
:1024D00001200B4908600B480068006840F00100CB
:1024E000084909680860002202210320FFF7CAF9A1
:1024F0000320FFF7B7F938BD002800400010024064
:102500003C044242BC0300202DE9F04704460D463E
:10251000904600260027B14604B115B90120BDE858
:10252000F08700BF207C012801D10220F7E70120BD
:10253000207400BF02206074B8F1000F06D1E97862
:10254000E17369786173A978A1730BE0E87801F011
:102550006BFAE073687801F067FA6073A87801F0AD
:1025600063FAA073A27B617BE07B01F05EFB2073CA
:10257000207B2870204601F03EFB06464FF4616048
:10258000B6FBF0F9B9F1180F2FD91820B9FBF0F00C
:1025900000EB4000C000C0EB4011C1EB0020A6EBF7
:1025A00000163146204601F099FB38B104206074D2
:1025B00000BF0020207400BF0120B0E7204601F0DA
:1025C0000EFB0746781C80B1B7420ED20B48074479
:1025D0003946204601F06BFB38B10420607400BF1F
:1025E0000020207400BF012099E70120607400BF23
:1025F0000020207400BF00BF91E70000805101005F
:102600002DE9F04704460D4690460026002704B108
:1026100015B90120BDE8F08700BF207C012801D159
:102620000220F7E70120207400BF02206074B8F197
:10263000000F0BD128784FF4616148436978C1EBF2
:10264000011100EB8100A978461812E0287801F00A
:10265000EBF94FF4616100FB01F9687801F0E4F9EE
:10266000C0EB001009EB8009A87801F0DDF909EB57
:1026700000063146204601F031FB38B10420607479
:1026800000BF0020207400BF0120C3E7206840681D
:1026900020F0050021684860204601F0A0FA0746B6
:1026A000781C80B1B7420ED20B4807443946204609
:1026B00001F0FDFA38B10420607400BF00202074DE
:1026C00000BF0120A6E70120607400BF0020207435
:1026D00000BF00BF9EE700008051010070B50446B6
:1026E00000250CB9012070BD2068406820F008006A
:1026F00021684860FEF70EFD054607E0FEF70AFD7B
:10270000401BB0F57A7F01D90320ECE720684068D0
:1027100000F008000028F1D00020E4E770B504467E
:102720002546681EB0F1807F01D301200FE0681EAE
:102730004FF0E02148610F214FF0FF3001F0A6FE7D
:1027400000204FF0E021886107200861002070BD63
:1027500010B5024600BF92F83C00012801D10220CA
:1027600010BD012082F83C0000BF022082F83D002D
:10277000106843681068846823F070030868034396
:1027800024F0800448680443106843601068846043
:10279000012082F83D0000BF002082F83C0000BF0D
:1027A00000BFDDE710B586B004460020029003901C
:1027B000049005900E492068884216D100BF0D484C
:1027C000806940F008000B4988610846806900F084
:1027D0000800019000BF00BF032002900220039078
:1027E000059002A90448FEF7EFFA06B010BD0000FC
:1027F0000004004000100240000C014070B5044687
:102800000D46164600BF94F83C00012801D1022075
:1028100070BD012084F83C0000BF022084F83D0018
:1028200036B1042E1BD0082E31D00C2E5ED145E0DF
:102830002946206801F0D0FB2068806940F008003C
:10284000216888612068806920F00400216888611F
:1028500020688069296908432168886147E0294622
:10286000206801F0E9FB2068806940F4006021687D
:1028700088612068806920F4806021688861206810
:102880008069296940EA0120216888612FE0294692
:10289000206801F005FC2068C06940F0080021684C
:1028A000C8612068C06920F004002168C861206800
:1028B000C069296908432168C86118E02946206871
:1028C00001F022FC2068C06940F400602168C86102
:1028D0002068C06920F480602168C8612068C069F0
:1028E000296940EA01202168C86100E000BF00BFFB
:1028F000012084F83D0000BF002084F83C0000BFA8
:1029000000BF85E710B504460CB9012010BD94F84E
:102910003D0028B9002084F83C00204600F00CF867
:10292000022084F83D00211D206801F009FB0120F0
:1029300084F83D000020E9E708B5094A01689142A2
:102940000DD100BF0749C96941F00201054AD161B3
:102950001146C96901F00201009100BF00BF08BD26
:10296000000400400010024070B504460E460122EB
:102970003146206801F01EFB0D492068884201D1D4
:10298000012000E0002028B12068406C40F40040A5
:10299000216848642068806800F00705062D05D08E
:1029A0002068006840F0010021680860002070BDC8
:1029B000002C014010B504460CB9012010BDA069DF
:1029C00000B100E000BF94F8390028B9002084F875
:1029D0003800204600F028F8242084F839002068C8
:1029E000C06820F400502168C860204601F0B0FBA8
:1029F0002068006920F490402168086120684069DF
:102A000020F02A00216848612068C06840F4005026
:102A10002168C8600020E063202084F8390084F831
:102A20003A000020CAE7000010B586B00446002036
:102A300002900390049005904349206888423FD15A
:102A400000BF4248806940F48040404988610846A0
:102A5000806900F48040019000BF00BF00BF0846BD
:102A6000806940F0040088610846806900F0040035
:102A7000019000BF00BF4815029002200390032080
:102A8000059002A93248FEF79FF94FF4806002904A
:102A900000200390049002A92D48FEF795F92D48D7
:102AA0000068C06840F020002A490968C860002218
:102AB00011462520FEF7E6FE2520FEF7D3FE41E075
:102AC0002549206888423DD100BF2048C06940F4B4
:102AD00000301E49C8610846C06900F4003001900A
:102AE00000BF00BF00BF0846806940F00400886155
:102AF0000846806900F00400019000BF00BF042078
:102B00000290022003900320059002A91048FEF7CE
:102B10005BF90820029000200390049002A90C4861
:102B2000FEF752F90D480068C06840F020000B49DC
:102B30000968C860002201212620FEF7A3FE262096
:102B4000FEF790FE06B010BD0038014000100240B4
:102B50000008014010040020004400405004002000
:102B60002DE9F84304460D4616461F464FF000096E
:102B700094F8390020285CD105B116B90120BDE8D0
:102B8000F88300BF94F83800012801D10220F6E74D
:102B9000012084F8380000BF0020E063212084F881
:102BA0003900FEF7B7FA8146A684E6842BE0E08C74
:102BB000401EE084A068B0F5805F16D14B4600222D
:102BC00080212046009701F093FB08B10320D6E74F
:102BD000A846B8F80000C0F30800216848602069E2
:102BE00008B9AD1C0FE06D1C0DE04B4600228021A2
:102BF0002046009701F07CFB08B10320BFE715F8E1
:102C0000010B21684860E08C0028D0D14B4600229F
:102C100040212046009701F06BFB08B10320AEE78E
:102C2000202084F8390000BF002084F8380000BF5D
:102C3000A5E70220A3E700002DE9FF47002001904F
:102C40000A20012301AA32210090BE2000F0FCFAE4
:102C500004461CB1204604B0BDE8F0879DF804503E
:102C60000A20012301AA35210090BE2000F0ECFAD1
:102C700004460CB12046EEE79DF8040000F0030680
:102C80000A20012301AA33210090BE2000F0DCFAC3
:102C900004460CB12046DEE79DF804700A200123AB
:102CA00001AA35210090BE2000F0CEFA04460CB1F6
:102CB0002046D0E79DF8040000F00C084FEAA80871
:102CC00045EA0620FDF754FC81464FF08241FDF7AE
:102CD00011FC6249086047EA0820FDF749FC81467B
:102CE0004FF08241FDF706FC5D4908600A20012390
:102CF00001AA3C210090BE2000F0A6FA04460CB1C7
:102D00002046A8E70A2001230DF105023D2100908D
:102D1000BE2000F099FA04460CB120469BE79DF8CE
:102D200004009DF8051000EB012000B24D49088019
:102D30000A20012301AA3E210090BE2000F084FA5F
:102D400004460CB1204686E70A2001230DF1050256
:102D50003F210090BE2000F077FA04460CB12046D7
:102D600079E79DF804009DF8051000EB012000B202
:102D70003D4908800A20012303AA30210090BE208B
:102D800000F062FA04460CB1204664E70A200123F1
:102D900002AA31210090BE2000F056FA04460CB180
:102DA000204658E70A20012301AA36210090BE20C0
:102DB00000F04AFA04460CB120464CE70A200123F1
:102DC0000DF1050237210090BE2000F03DFA0446C7
:102DD0000CB120463FE79DF804009DF8051000EB7C
:102DE000012000B2214908800A20012301AA3A21CA
:102DF0000090BE2000F028FA04460CB120462AE7D5
:102E00000A2001230DF105023B210090BE2000F0B5
:102E10001BFA04460CB120461DE79DF804009DF8FE
:102E2000051000EB012000B2114908809DF80C004C
:102E3000FDF7A7FB81464FF08041FDF75BFB0D4995
:102E400008609DF80800FDF79CFB81464FF080412B
:102E5000FDF750FB084908600020FCE65401002003
:102E6000580100205C0100205E0100206801002064
:102E70006A01002060010020640100202DE9F04F6C
:102E800085B005460020049003900A260A200123FD
:102E900003AA20210090BE2000F0D6F904461CB100
:102EA000204605B0BDE8F08F9DF80C0000F003004F
:102EB00003909DF80C00002860D1802003900A2028
:102EC000012303AA20210090BE2000F017FC044635
:102ED0000CB12046E5E70A20012303AA2121009036
:102EE000BE2000F0B1F904460CB12046D9E79DF8A8
:102EF0000C0020F0010003909DF80C0040F0010050
:102F000003900A20012303AA21210090BE2000F093
:102F1000F5FB04460CB12046C3E70A20012303AAAF
:102F200021210090BE2000F08FF904460CB120460C
:102F3000B7E70A20012303AA10210090BE2000F069
:102F400083F904460CB12046ABE700BF0A200123F9
:102F500003AA27210090BE2000F076F904460CB1A8
:102F600020469EE70A2005F069FC701E86B29DF897
:102F70000C0000F0020008B9002EE7D10EB90320C2
:102F80008FE70A20012304AA28210090BE2000F028
:102F90005BF904460CB1204683E70A2001230DF1BA
:102FA000110229210090BE2000F04EF904460CB118
:102FB000204676E79DF810009DF8111000EB0120E7
:102FC00007B21D49B1F900101C4AB2F90020881A55
:102FD000FDF7CEFA02901A4801681A480068FDF71A
:102FE00051FA16490190B1F90010781AFDF7C0FAAC
:102FF00000900199FDF74CFA83460299FDF77AFAA1
:1030000082460F4801685046FDF7EAF981460E49AD
:103010004846FDF73DFA8246FDF7B8FA0FFA80F808
:103020000A2098FBF0F028802888642801DD6420BD
:103030002880002035E700006A0100206801002098
:103040006001002064010020000020412DE9FF5FA5
:1030500006460020039002900A250A20012302AAB6
:1030600020210090BE2000F0EFF804461CB120465D
:1030700004B0BDE8F09F9DF8080000F00300029046
:103080009DF80800002845D1802002900A200123E5
:1030900002AA20210090BE2000F030FB04460CB1B3
:1030A0002046E5E70A20012302AA21210090BE2044
:1030B00000F0CAF804460CB12046D9E79DF8080094
:1030C00020F0010002909DF8080040F001000290FD
:1030D0000A20012302AA21210090BE2000F00EFB4D
:1030E00004460CB12046C3E700BF0A20012302AA10
:1030F00027210090BE2000F0A7F804460CB120461E
:10310000B6E7681E85B29DF8080000F0010008B916
:10311000002DEAD10DB90320AAE70A20012303AA52
:103120002A210090BE2000F08FF804460CB1204602
:103130009EE70A2001230DF10D022B210090BE20F5
:1031400000F082F804460CB1204691E79DF80C008F
:103150009DF80D1000EB012007B2154801681548D5
:103160000068FDF78FF914490190B1F90010134A76
:10317000B2F90020881AFDF7FBF983460F49B1F92F
:103180000010781AFDF7F4F959460090FDF7B2F9EE
:1031900082460199FDF77CF9814605480168484659
:1031A000FDF71EF98046C6F80080002060E70000A9
:1031B00054010020580100205E0100205C01002025
:1031C0001CB5002001900A20012301AA0F210090C4
:1031D000BE2000F039F804460CB120461CBD9DF815
:1031E0000400BC2801D00120F8E7012001900A204A
:1031F000012301AA21210090BE2000F07FFA04469D
:103200000CB12046EAE72046E8E701460868406935
:10321000C0F38020B0B16FF480600A685061002074
:103220000863202081F83D00002081F83E00086CF2
:1032300040F00400086400BF002081F83C0000BF9B
:10324000012070470020FCE72DE9FE4304460D46AF
:1032500016461F46DDF8289001232A4621460448D9
:103260008DE8C002FEF738F880464046BDE8FE8390
:10327000041600202DE9F84304460F4615469946EA
:10328000DDE908862068006840F4806021680860F5
:103290002068006840F4807021680860434600227E
:1032A0004FF001112046009600F014F910B10120F2
:1032B000BDE8F88307F0FE00216808613346424606
:1032C0003949204600F049F908B10120F0E700BF74
:1032D000002000902068406900902068806900907C
:1032E00000BF00BF32464146204600F0D8F950B139
:1032F000206C042805D12068006840F40070216823
:1033000008600120D4E7B9F1010F03D1E8B22168C8
:10331000086117E0C5F3072021680861324641467D
:10332000204600F0BCF950B1206C042805D120687B
:10333000006840F40070216808600120B8E7E8B236
:103340002168086132464146204600F0A8F950B194
:10335000206C042805D12068006840F400702168C2
:1033600008600120A4E72068006840F480702168AC
:103370000860434600224FF001112046009600F0FD
:10338000A9F808B1012093E7F8B240F001002168E4
:103390000861334642460449204600F0DEF808B191
:1033A000012085E7002083E7020001002DE9F843B2
:1033B0000446884615469946DDE908672068006896
:1033C00040F4807021680860334600224FF00111FC
:1033D0002046009700F07EF810B10120BDE8F88388
:1033E00008F0FE00216808613B463246214920462C
:1033F00000F0B3F808B10120F0E700BF0020009012
:1034000020684069009020688069009000BF00BF7C
:103410003A463146204600F042F950B1206C04286B
:1034200005D12068006840F4007021680860012020
:10343000D4E7B9F1010F03D1E8B22168086117E0C0
:10344000C5F30720216808613A463146204600F05E
:1034500026F950B1206C042805D12068006840F49A
:103460000070216808600120B8E7E8B221680861AF
:103470000020B3E70200010070B504460D46164671
:1034800020E02046FFF7C1FE08B1012070BD681C96
:10349000C0B1FDF73FFE801BA84200D895B90020BF
:1034A0002063202084F83D00002084F83E00206C3A
:1034B00040F02000206400BF002084F83C0000BFE2
:1034C0000120E3E720684069C0F380000028D8D0DD
:1034D0000020DBE72DE9F04104460D4617461E4665
:1034E000DDF818801CE0701CD0B1FDF713FEA0EBD6
:1034F0000800B04200D89EB900202063202084F844
:103500003D00002084F83E00206C40F02000206444
:1035100000BF002084F83C0000BF0120BDE8F0811E
:10352000C5F3074001280AD120684069A9B20840C4
:10353000A9B2884201D101200BE0002009E02068F7
:103540008069A9B20840A9B2884201D1012000E0F7
:103550000020B842C7D00020E0E72DE9F041044642
:103560000D4616461F463DE020684069C0F38020A6
:10357000E8B12068006840F40070216808606FF4CA
:1035800080602168486100202063202084F83D008D
:10359000002084F83E00206C40F00400206400BF4E
:1035A000002084F83C0000BF0120BDE8F081701CC1
:1035B000C0B1FDF7AFFDC01BB04200D896B90020E6
:1035C0002063202084F83D00002084F83E00206C19
:1035D00040F02000206400BF002084F83C0000BFC1
:1035E0000120E2E7C5F3074001280AD120684069BD
:1035F000A9B20840A9B2884201D101200BE0002005
:1036000009E020688069A9B20840A9B2884201D1C6
:10361000012000E000200028A6D00020C5E770B5FA
:1036200004460D46164632E020684069C0F300109B
:10363000A0B16FF0100021684861002020632020B5
:1036400084F83D00002084F83E00206C206400BF18
:10365000002084F83C0000BF012070BDFDF75AFD3A
:10366000801BA84200D895B900202063202084F850
:103670003D00002084F83E00206C40F020002064D3
:1036800000BF002084F83C0000BF0120E5E720686F
:103690004069C0F380100028C6D00020DDE770B577
:1036A00004460D46164620E02046FFF7AEFD08B161
:1036B000012070BD681CC0B1FDF72CFD801BA84225
:1036C00000D895B900202063202084F83D00002018
:1036D00084F83E00206C40F02000206400BF0020F1
:1036E00084F83C0000BF0120E3E720684069C0F394
:1036F000C0100028D8D00020DBE700002DE9FE43F1
:1037000004460D4616461F46DDF8289001232A463A
:10371000214604488DE8C002FDF766FF804640461A
:10372000BDE8FE830416002000B585B0002001909E
:1037300002900390049000BF3248806940F010006E
:10374000304988610846806900F01000009000BF91
:1037500000BF00BF0846806940F02000886108462D
:10376000806900F02000009000BF00BF00BF084645
:10377000806940F0040088610846806900F0040018
:10378000009000BF00BF00BF0846806940F00800FD
:1037900088610846806900F00800009000BF00BF03
:1037A000012247F6C4411848FDF7ADFC4FF40C6008
:1037B0000190002002900120039001A91348FDF719
:1037C00003FB47F6C44001900120029003900220C1
:1037D000049001A90C48FDF7F7FA4FF4004001905E
:1037E0000B4802900020039001A90748FDF7ECFA6E
:1037F000002203212820FEF745F82820FEF732F8A2
:1038000005B000BD00100240000C0140000801405E
:103810000000111010B50A480A4908600A484860BB
:10382000002108488160C1604FF48041016100219E
:1038300041618161C1610162FDF772FC10BD000050
:103840000054004004160020A08601001CB5214849
:10385000214908604FF0FF3048604FF480711E48E6
:103860008160FEF7B7FD08B1FDF79DFAFEF75CF841
:1038700001211948FEF7EAFC4AF2A551884227D0F7
:10388000164804F063F90020019000908DF80400C0
:103890008DF805008DF80600012201A90E48FEF7FB
:1038A000AFFE08B1FDF77FFA00208DF8000001207F
:1038B0008DF801008DF8020014208DF8030001221C
:1038C00069460548FEF720FE08B1FDF76CFA00BF17
:1038D0001CBD000000280040BC0300209495000897
:1038E00000B589B00020079008901C216846FCF7BD
:1038F00016FD2348234908604720486000212148DD
:10390000816040F2E731C160002101618161FEF711
:10391000F9FF08B1FDF747FA00200790089007A9C2
:103920001848FEF715FF08B1FDF73DFA602000903A
:103930000020019002900490082269461148FEF789
:103940005DFF08B1FDF72FFA0C2269460D48FEF71E
:1039500055FF08B1FDF727FA0A48FEF723FF0821B3
:103960000848FFF701F80C210648FEF7FDFF00208C
:1039700003493C310860091D086009B000BD000022
:1039800000040040D003002010B50B480B4908602C
:103990004FF416504860002108488160C160016101
:1039A0000C21416100218161C161FFF703F808B179
:1039B000FDF7F9F910BD00000038014010040020A7
:1039C00010B50B480B4908604FF4E1304860002106
:1039D00008488160C16001610C2141610021816161
:1039E000C161FEF7E7FF08B1FDF7DDF910BD00008A
:1039F000004400405004002000BFFEE77047000074
:103A000008B508490968C9084FF47A72B1FBF2F1A8
:103A10004143009100BF00BF00994A1E0092002957
:103A2000F9D108BD84000020014600BF080900EB61
:103A30008000420001F00F001044C0B27047014600
:103A4000002203E0521CA1F10A00C1B20A29F9D2F6
:103A5000100741EA106070472DE9F0470646884696
:103A6000002700240025A146F77B747BB57B00BFAF
:103A700040E0012C0BD0032C09D0052C07D0072CDB
:103A800005D0082C03D00A2C01D00C2C0CD11F2DF2
:103A900001D26D1C2CE00C2C02D0641C012527E007
:103AA000012401257F1C23E0042C05D0062C03D023
:103AB000092C01D00B2C06D11E2D01D26D1C17E054
:103AC000641C012514E0022C12D11C2D01D26D1CA6
:103AD0000EE01C2D08D1B8B200F068F808B16D1CDA
:103AE00006E0641C012503E01D2D01D1641C0125A5
:103AF00009F10109C145BCD3F7737473B573EAB218
:103B0000E1B2384600F091F83073BDE8F08770B547
:103B100004460025FDF7FEFA054607E0FDF7FAFA30
:103B2000401BB0F57A7F01D9032070BD2068406842
:103B300000F020000028F1D02068406840F010001C
:103B4000216848600020F0E770B504460025206831
:103B5000406820F0100021684860FDF7DBFA054658
:103B600007E0FDF7D7FA401BB0F57A7F01D90320B3
:103B700070BD2068406800F020000028F1D00020CF
:103B8000F6E7000010B503F079FF4FF40061054837
:103B9000FDF7B2FA6FF0010003490968486003F0CD
:103BA0007DFF10BD000C0140BC030020014601F068
:103BB000030008B1002070476420B1FBF0F200FB65
:103BC000121008B10120F6E74FF4C870B1FBF0F213
:103BD00000FB121008B90120EDE70020EBE70146D9
:103BE000002200230868006A82B20868406A83B233
:103BF00043EA0240704730B501460022002300240A
:103C000000200D68AD69AAB20D68ED69ACB20D680F
:103C1000AD69ABB29A4205D00D68ED6963F31F45FB
:103C2000284601E044EA024030BDF0B504460B46A8
:103C30000021002504F5FA61032B1BD2C3EBC3005E
:103C400000EB03100926B0FBF6F01044001D4618E7
:103C5000481E06EB90066427B0FBF7F0361A481EA4
:103C6000BF00B0FBF7F030440726B0FBF6F706FBC9
:103C700017051AE0C3EBC30000EB03100926B0FBE5
:103C8000F6F01044001D084400EB91006426B1FBDF
:103C9000F6F6801B4FF4C876B1FBF6F63044801E72
:103CA0000726B0FBF6F706FB1705E8B2F0BD70B5C6
:103CB00004460D4600262046FFF729FF08B10126DD
:103CC0000AE0280C21680862A8B2216848622046F0
:103CD000FFF73AFF00B10126304670BD70B50446CB
:103CE0000D4600262046FFF712FF08B101260AE024
:103CF000280C21688861A8B22168C8612046FFF7B6
:103D000023FF00B10126304670BD7047002808DD52
:103D100000EB800149000A4A11600021121D116068
:103D20000DE00021064A1160011E01DB0A4600E099
:103D30004A4202EB82025200014B1B1D1A6070477F
:103D40003C0400402DE9F05F80460E469146002479
:103D50001CE016F814A06000401C16F800B0504695
:103D6000FCF76AFA3038C5B2092D01DDE81FC5B28B
:103D70005846FCF761FA3038C7B2092F01DDF81F49
:103D8000C7B207EB051008F80400641C4C45E0DBE3
:103D9000BDE8F09F10B503F071FE04F03BFE03F0A8
:103DA0007DFE10BD00B593B0282109A8FCF7B7FA35
:103DB000142104A8FCF7B3FA0020009001900290AF
:103DC0000390052009904FF480300A9000200B905A
:103DD00001200C900D9002201090C10311914FF41E
:103DE000E011129109A8FDF7FFFF08B1FCF7DBFF16
:103DF0000F20049002200590002006904FF4806070
:103E0000079000200890022104A8FDF7B7FE08B132
:103E1000FCF7C9FF01200090000201906846FDF701
:103E200015FE08B1FCF7BFFFFFF77EFCFFF70EFDA4
:103E3000FFF756FDFFF7A8FDFFF7C2FDFFF7EAFC0D
:103E400013B000BD10B5002100200022214B5B689B
:103E500003F00C0121B1042906D0082928D107E07C
:103E60001D4B1E4C236027E01B4B1C4C236023E0A2
:103E7000184B5B6803F47010164B5B6803F48032D8
:103E8000022303EB904022B9154B4343134C2360AC
:103E90000DE0104B5B6803F4003323B1104B434338
:103EA0000E4C236003E00C4B43430C4C236003E0B7
:103EB000094B0A4C236000BF00BF064B5B68C3F38D
:103EC0000313084CE15C054B1B68CB40034C23609B
:103ED00010BD00000010024000127A008400002093
:103EE00000093D008A9200081148006840F0010076
:103EF0000F490860084640680E4908400C49486070
:103F0000084600680C4908400949086008460068EE
:103F100020F4802008600846406820F4FE004860D5
:103F20004FF41F008860C803044908607047000010
:103F3000001002400000FFF8FFFFF6FE08ED00E071
:103F400010B50268184B984208D0B0F1804F05D0E8
:103F5000164B984202D0164B984203D122F07002C1
:103F60004B681A43104B984208D0B0F1804F05D0EF
:103F70000E4B984202D00E4B984203D122F440726D
:103F8000CB681A4322F080034C6943EA04020260C2
:103F90008B68C3620B688362034B984201D10B6943
:103FA00003630123436110BD002C01400004004065
:103FB0000008004030B501F01F05012404FA05F3A4
:103FC000046A9C430462046A01F01F0502FA05F5C5
:103FD0002C43046230BD000030B5056A25F00105B0
:103FE0000562026A4368846924F0700424F00304C3
:103FF0000D682C4322F002028D682A430D4DA84221
:1040000006D100BF22F00802CD682A4322F0040244
:10401000084DA84207D123F4807323F400734D693F
:104020002B438D692B43436084614D684563026275
:1040300030BD0000002C014030B5056A25F01005A8
:104040000562026A4368846924F4E04424F44074FD
:104050000D6844EA052422F020028D6842EA051228
:104060000E4DA84207D100BF22F08002CD6842EA7F
:10407000051222F04002094DA84209D123F48063C1
:1040800023F400634D6943EA85038D6943EA8503A0
:10409000436084614D688563026230BD002C01403D
:1040A00030B5056A25F480750562026A4368C46903
:1040B00024F0700424F003040D682C4322F40072F1
:1040C0008D6842EA05220F4DA84207D100BF22F4B5
:1040D0000062CD6842EA052222F48062094DA842BE
:1040E00009D123F4805323F400534D6943EA0513A7
:1040F0008D6943EA05134360C4614D68C56302627C
:1041000030BD0000002C014030B5056A25F4805513
:104110000562036A4468C26922F4E04222F44072F4
:104120000D6842EA052223F400538D6843EA053303
:10413000064DA84204D124F480444D6944EA851414
:104140004460C2614D680564036230BD002C0140CB
:1041500070B504462168096921F44051E2681143B1
:10416000226811612269A1681143626941EA02056E
:104170002168C96841F20C62914329432268D160E9
:104180002168496921F44071A26911432268516193
:10419000564A2168914254D1FDF7CCFD00EBC00195
:1041A00001EB001162689200B1FBF2F100EBC0027A
:1041B00002EB001263689B00B2FBF3F26423B2FBD4
:1041C000F3F202EBC20303EB0212A1EB82013222F3
:1041D00002EB01116422B1FBF2F101F0F00100EBFE
:1041E000C00202EB001263689B00B2FBF3F264238F
:1041F000B2FBF3F201EB021200EBC00101EB001184
:1042000063689B00B1FBF3F100EBC00303EB001309
:104210006668B600B3FBF6F36426B3FBF6F303EB74
:10422000C30606EB0313A1EB8301322303EB011159
:104230006423B1FBF3F101F00F0111442268916096
:1042400053E0FDF767FD00EBC00101EB0011626870
:104250009200B1FBF2F100EBC00202EB00126368C6
:104260009B00B2FBF3F26423B2FBF3F202EBC20356
:1042700003EB0212A1EB8201322202EB0111642254
:10428000B1FBF2F101F0F00100EBC00202EB001211
:1042900063689B00B2FBF3F26423B2FBF3F201EB21
:1042A000021200EBC00101EB001163689B00B1FB3F
:1042B000F3F100EBC00303EB00136668B600B3FB39
:1042C000F6F36426B3FBF6F303EBC30606EB031326
:1042D000A1EB8301322303EB01116423B1FBF3F162
:1042E00001F00F0111442268916070BD0038014057
:1042F0002DE9F04104460D4617469846069E21E0FA
:10430000701CF8B12EB1FCF705FFA0EB0800B0421D
:1043100018D92068C06820F4D0702168C86020686F
:10432000406920F0010021684861202084F83900AC
:1043300084F83A0000BF002084F8380000BF032052
:10434000BDE8F081206800682840A84201D1012022
:1043500000E00020B842D3D00020F1E710B54FF0C4
:10436000FF3403F08BFB124800680068C0F3401074
:10437000D8B10F480068C06800F02000A8B112E072
:104380004FF0FF340A4800680068C0F3401018B1CD
:10439000074800684068C4B2601C00B904E0E1B29C
:1043A000044803F090FEEBE700BF03F077FB10BD7D
:1043B00010040020B003002010B54FF0FF3403F0CC
:1043C0005DFB144800680068C0F34010F0B111486C
:1043D0000068C06800F02000C0B112E04FF0FF3468
:1043E0000C4800680068C0F3401018B10948006824
:1043F0004068C4B2601C00B904E0E1B2064803F0B2
:1044000062FEEBE700BF054803F0A7FF03F046FBA1
:1044100010BD000050040020840100209001002005
:1044200000BFFEE70146481EB0F1807F01D30120A6
:104430007047481E4FF0E0225061FF20044A107080
:1044400000204FF0E0229061072010610020EFE78C
:1044500023ED00E00FB4084B10B504A902AA03989D
:1044600000F064F9044602A9002000F071FD204626
:1044700010BC5DF814FB0000514F000802480068B2
:10448000C0F30220704700000CED00E010B50028DA
:1044900004DB0A07130E054A135406E00A07140E3C
:1044A000034A00F00F031B1FD45410BD00E400E0CA
:1044B00018ED00E00048704774010020014609B97A
:1044C00000207047C8B220B1C8B20E4A105C401C30
:1044D000F7E701F47F4028B10A48C1F30722805C66
:1044E0000930EEE701F47F0028B10648C1F3074226
:1044F000805C1130E5E7034800EB1160007819306B
:10450000DFE70000A292000802E008C8121F08C1FD
:10451000002AFAD170477047002001E001C1121F44
:10452000002AFBD1704700002DE9FF5F82B0002117
:10453000DDE90430020DDDF840B0034318D044F645
:104540001050A2F2FF3242431514119801281FD0D7
:10455000A5EB0B00401C5FEA000A4FF000064E4F2F
:10456000DFF83891B046504615D5CAF1000413E083
:10457000119801244AA3012801D16FEA0B01029886
:10458000119AC0E90031C0E9024206B0BDE8F09FCF
:10459000CBF10000DFE704460021404A491842EB16
:1045A0000450CDE9001012E0E00707D032463B4648
:1045B00040464946FCF7BAF98046894632463B46B2
:1045C00010461946FCF7B2F906460F466410002C57
:1045D000EAD1DDE90401DDE90023BAF1000F06DAD2
:1045E000FCF7A4F942464B46FCF7A0F905E0FCF7BE
:1045F0000FFA42464B46FCF70BFA04460E460022E1
:10460000284BFCF78DFA03D84FF0FF30014607E046
:104610000022254B20463146FCF7E1F8FCF767FA0B
:10462000102409E0002C0ADB0A220023FBF7EBFF31
:10463000039B30321A55641E50EA0102F2D1641C09
:10464000039AC4F111031444119A012A03D00122E0
:1046500008430DD10AE0084304D000204FF0110BAD
:10466000119072E7A3EB0B056D1E0DE05B4504DDB9
:104670004FF0000205F1010504E003DA4FF00002FB
:10468000A5F10105002AECD002981199C0E9023188
:10469000C0E9004579E70000000014400000F03F49
:1046A000300000000000F0430000E03F03490868CC
:1046B000884201D0012070470020FCE7180100204B
:1046C0002DE9F04389B0064688469146002400E073
:1046D000641C305D202804D0305D092801D0444599
:1046E000F6D324B94FF0FF3009B0BDE8F08321467E
:1046F000304602F09DFC054615B94FF0FF30F3E758
:10470000202101A8FBF70BFE01AA4146304602F02A
:10471000F9FC074617B94FF0FF30E5E701A9384625
:10472000A847C9F800000020DEE700002DE9FF4F90
:1047300095B09B468946064600250FE2252877D18D
:1047400000242746F84A0121059400E0044316F8A6
:10475000013F203B01FA03F01042F7D130782A28BC
:1047600011D06FF02F033078A0F13002092A16D84B
:10477000059A44F0020402EB820203EB4202104469
:10478000761C0590EFE759F8042B0592002A03DA0E
:10479000504244F40054059044F00204761C3078F2
:1047A0002E2816D116F8010F44F004042A280DD043
:1047B0006FF02F023078A0F13003092B09D807EBF6
:1047C000870302EB4303C718761CF3E759F8047B11
:1047D000761C30786C280FD006DC4C2817D068285F
:1047E0000DD06A2814D104E0742810D07A280FD193
:1047F0000DE044F400140AE044F4801401E044F4B1
:1048000040147278824202D104F58014761C761C22
:10481000307866280BD013DC582877D009DC0028C4
:1048200075D04528F6D04628F4D047281AD19DE106
:1048300018E0632835D0642879D0652812D195E135
:10484000702873D008DC6728F1D069286FD06E28F3
:104850000DD06F2806D1B5E073282CD0752875D0FF
:10486000782874D05A46179990476D1C75E1C4F3A7
:104870000250022809D003280DD0D9F800100428CE
:104880000DD00D6009F1040967E1D9F80010EA17AD
:10489000C1E90052F6E7D9F800100D80F2E70D707B
:1048A000F0E719F8041B8DF8001000208DF80100C6
:1048B000EA46012003E059F804AB4FF0FF306107EE
:1048C0004FF0000102D40DE008F101018846B94221
:1048D0000FDA8045F8DB1AF808100029F4D108E057
:1048E00008F1010188468142FADB1AF80810002914
:1048F000F6D105985B46A0EB080721463846179A83
:1049000000F094FA284400EB080507E04DE029E1A7
:104910000DE01AF8010B5A4617999047B8F10108B3
:10492000F7D25B4621463846179A13E142E00A2245
:104930000092C4F302524FF0000A022A08D059F83C
:1049400004CB032A4FEAEC710AD00DE029E02AE0FB
:1049500009F1070121F00702F2E802C1914609E0DE
:104960000FFA8CFC4FEAEC71042A03D14FFA8CFC4D
:104970004FEAEC71002907DA0A460021DCF1000C4D
:1049800061EB02012D2202E0220504D52B228DF8D5
:104990000420012203E0E20701D02022F7E790463D
:1049A00059E00A2102E010220DE010214FF0000A28
:1049B00000910BE010224FF0000A44F00404082795
:1049C000009203E008224FF0000A0092C4F3025262
:1049D000022A05D059F804CB0021032A08D009E0A7
:1049E00009F1070121F00702F2E802C1914605E052
:1049F0001FFA8CFC042A01D10CF0FF0C4FF00008C8
:104A0000220728D5702806D0009B83F0100353EAB4
:104A10000A0305D00EE040228DF80420012208E0B0
:104A20005CEA010206D030228DF804208DF80500E2
:104A300002229046009B83F0080353EA0A030AD13E
:104A40005CEA010201D1620705D530228DF804200D
:104A50004FF001087F1E582804D034A003900EA800
:104A600002900DE036A0F9E753466046009AFBF746
:104A7000CAFD84460398825C0298401E0290027030
:104A80005CEA0100F0D1029806A9081A00F1200A98
:104A9000600702D524F4803400E00127574502DD89
:104AA000A7EB0A0000E0002000EB0A010090059847
:104AB0004144401A0590E00306D45B462146179A0C
:104AC000059800F0B3F90544002706E001A85A460E
:104AD000C05D179990476D1C7F1C4745F6DBE003CE
:104AE0000CD55B462146179A059800F09FF90544BE
:104AF00004E030205A46179990476D1C0099481ED3
:104B000000900029F5DC08E0029802995A460078E6
:104B1000491C0291179990476D1CBAF10001AAF146
:104B2000010AF1DC65E1000009280100303132336F
:104B300034353637383961626364656600000000D9
:104B400030313233343536373839414243444546C3
:104B50000000000000F058F90544761C3078002869
:104B60007FF4ECAD19B02846BDE8F08F620700D4A1
:104B7000062709F1070222F0070CFCE80223E146B0
:104B800003F000485FEA080C02D00FF2702C0DE031
:104B90005FEA045C02D50FF2682C07E05FEAC47C90
:104BA00002D00FF2602C01E0AFF2700C4FF0FF3832
:104BB00023F00043CDF850C065280CD006DC452812
:104BC00009D046281DD047283DD13DE0662818D0A1
:104BD00067287ED138E00021112F01DB112000E091
:104BE000781CCDE9000106A90EA8FFF79DFCDDE9C0
:104BF0000F010E9A03910021009207F1010A04911E
:104C00004DE04FF000400097CDE9011006A90EA835
:104C1000FFF78AFCDDE90F0203920E9B1199002237
:104C2000DDF80CA00093049211B9791C00EB010A85
:104C3000B7EB0A0004D4C0F1FF3007F1010A049079
:104C4000AAEB0700019044E0012F00DA01270021C0
:104C5000112F01DD112000E03846CDE9000106A941
:104C60000EA8FFF761FCDDE90F010E9A0391002108
:104C700004910092BA4621070CD40399514500DAF9
:104C80008A46BAF1010F05DD009AAAF10101515CD3
:104C9000302908D0B84202DA10F1040F06DA0121F7
:104CA000CDE9011015E0AAF10101E9E7002805DCD2
:104CB000049901440491AAEB000102E0411C514512
:104CC00000DD8A460499401A401C01904FF00040D4
:104CD0000290200704D40198504501DBCDF80480F0
:104CE00000208DF84F0002980DF14F07B0F1004FF2
:104CF00025D02B200E9002984FF0020800280CDAE5
:104D0000404202902D200E9007E00A210298FBF706
:104D100064FC3031029007F8011DB8F10001A8F1E0
:104D20000108F2DC02980028EFD1791E0E98087075
:104D3000307800F0200040F0450007F8020D12A87E
:104D4000C01B00F107081498007800B1012000EBA7
:104D50000A01019801EBE07105984144401A401E98
:104D60000590E00306D45B462146179A059800F0AB
:104D70005DF805441498007818B15A461799904781
:104D80006D1CE00324D55B462146179A059800F078
:104D90004DF805441CE00498002807DBDDE9030119
:104DA000884203DD0098405C179901E01799302094
:104DB0005A469047049805F10105401C049001985B
:104DC000401E019004D12E205A46179990476D1C21
:104DD000BAF10001AAF1010ADDDC05E017F8010BC8
:104DE0005A46179990476D1CB8F10001A8F10108C7
:104DF000F4DC5B462146179A0598ABE62D000000CF
:104E00002B000000200000002DE9F04104460025A1
:104E10001E461746880404D405E039462020B047D2
:104E20006D1C641EF9D52846BDE8F0812DE9F041DE
:104E3000044600251E469046C80301D5302700E0F1
:104E40002027880404D505E041463846B0476D1C4C
:104E5000641EF9D52846BDE8F08100002DE9FC5F0D
:104E600004468B4615461E46DDE90C9ADDE90E78B0
:104E700004F114004060006000BF1C346560A6604F
:104E8000C4F80C90C4F810A02321D4E9030202F066
:104E9000A6FFD4E9033C63441A1F0F4BD4E9010178
:104EA00002F0C6FD2060A77667760020E061C4F8B6
:104EB0002880C4F82C8060612076E06520661C3C68
:104EC00000902346054A2146019004F14C0003F06E
:104ED00023FE0020BDE8FC9FE58600084D89000800
:104EE0002DE9F04704460E4617469846DDF8209017
:104EF00084F80990607A20F001006072E661276210
:104F00000020A062C4F82480002506E004F114010A
:104F100001EBC50002F038FE6D1C012DF6DBBDE88B
:104F2000F08710B50246002001460EE002F114039E
:104F300003EBC100D0E900436360D0E90034236093
:104F40004060006000BF481C01460129EEDB10BD37
:104F50000A68531C0B6010707047000001460A4835
:104F60000078622801D108467047002040EA0160BD
:104F700001F47F4240EA022001F47F0240EA12205D
:104F800040EA1160F0E70000740000200146064886
:104F90000078622801D108467047C8B2002242EA70
:104FA000002040EA1120F7E7740000202DE9F84FB7
:104FB00004460D4616461F464FF000084FF00A09FA
:104FC0002DA00068009001202C4908703146284629
:104FD000FBF7A5F92046FBF7D7F91FFA80FA6FF027
:104FE0007043524621462648FDF7BAFD6FF07043E4
:104FF000032269462248FDF7B3FD00BF214802F0B5
:10500000A6FF1FFA80F8B8F1000F08D0384603F069
:1050100015FC324629461B4802F0BFFF09E0052077
:1050200003F00CFCB9F10000A9F1010101F0FF0946
:10503000E4D100BF14A12846FBF788F920B1002075
:105040000E490870BDE8F88F10A12846FBF77EF9DD
:1050500040B129460FA002F079FD002007490870F1
:105060000120EFE7214611A002F070FD0020034966
:1050700008700220E6E700000D0A00007000002022
:1050800010040020B00300204F4B00004552524F47
:1050900052000000617420726573706F6E7365203A
:1050A0006572726F723A25730D0A000073656E6443
:1050B00020617420636D643A2573206E6F207265E1
:1050C00073706F6E73650D0A0000000030B58DB00F
:1050D00034216846FBF723F900244FF4FA7003F0FB
:1050E000ADFB4FF49673322269462EA0FFF75EFFA8
:1050F00010B100200DB030BD2CA16846FBF726F999
:105100000446A41C0F2221462948FBF7EFF84FF470
:1051100096733222694627A0FFF748FF08B10020A6
:10512000E8E727A16846FBF711F90446241D0F2282
:1051300021461F480F38FBF7D9F84FF496733222F7
:10514000694621A0FFF732FF08B10020D2E721A174
:105150006846FBF7FBF80446241D14222146144838
:105160001E30FBF7C3F84FF49673322269461BA03A
:10517000FFF71CFF08B10020BCE71BA16846FBF746
:10518000E5F80446241D09A12046FBF7DFF8001BC3
:10519000C5B22A46214606483230FBF7A7F801205F
:1051A000A8E7000041542B43494D49000D0A000077
:1051B0009F14002041542B4347534E3D31000000C3
:1051C00047534E3A0000000041542B4E434349449C
:1051D000000000004349443A0000000041542B43C2
:1051E00047504144445200004444523A00000000F9
:1051F00010B5B6B0C82104A8FBF791F800200190C3
:105200000290039000244FF49673C82204A938A09A
:10521000FFF7CCFE10B1002036B010BD37A104A8B6
:10522000FBF794F804460834206801906068029007
:10523000207A8DF80C0001A8FBF7C5F83249C1F8B7
:105240000F00002001900290039030A104A8FBF70A
:105250007DF80446241D20788DF8040001A8FBF792
:10526000B2F82949C1F81F00002001900290039074
:1052700028A104A8FBF76AF80446241D2088ADF88D
:105280000400A0788DF8060001A8FBF79CF81E49E1
:10529000C1F81B0000200190029003901FA104A8F8
:1052A000FBF754F80446241D2088ADF80400A078CC
:1052B0008DF8060001A8FBF786F81349C1F8130022
:1052C000002001900290039016A104A8FBF73EF87D
:1052D0000446641D2068019001A8FBF774F80A4990
:1052E000C1F817000020019002900390012093E77D
:1052F00041542B4E554553544154530043656C6CF7
:105300002049443A00000000E014002045434C3A94
:1053100000000000534E523A000000005043493A4A
:1053200000000000525352513A00000010B50446EC
:10533000282000F0E3F868B1012007490870FFF762
:10534000C5FEFFF755FF00F009F800F09DF800F0EA
:105350007DFE10BD00BFFCE73C00002000B58DB015
:1053600034216846FAF7DBFF64233222694604A041
:10537000FFF71CFE10B100200DB000BD0120FBE7BF
:1053800041542B4E50534D523D31000010B520A0DA
:1053900002F0DCFB2148017821A002F0D7FB1F4876
:1053A000007800F0010010B123A002F0CFFB1B48F1
:1053B000007800F0020010B122A002F0C7FB1748ED
:1053C000007800F0040010B121A002F0BFFB1348E8
:1053D000007800F0080010B121A002F0B7FB0F48E0
:1053E000007800F0100010B120A002F0AFFB0B48D5
:1053F000007800F0800030B108480F3001681DA02F
:1054000002F0A4FB02E01FA002F0A0FB10BD000010
:10541000627573206661756C743A0A0029ED00E0CC
:105420005343425F434653525F424653523A3078A9
:105430002530325820000000494255534552522031
:10544000000000005052454349534552522000008D
:10545000494D5052454349534552522000000000E7
:10546000554E53544B4552522000000053544B4567
:10547000525220005343422D3E424641523A25307B
:1054800038580A000A00000010B500240B480078C4
:1054900020B90BA002F05AFB002010BD082000F03C
:1054A000A5FC04462CB10121204602F04FFE01204C
:1054B000F3E70BA002F04AFB0020EEE73C000020DF
:1054C000646576696365206E6574207374617475B4
:1054D0007320697320646F776E2E2E0D0A00000012
:1054E000676574206D6F64756C652074696D6520E7
:1054F0006572726F722E2E0D0A00000030B58DB0ED
:10550000044634216846FAF70AFF002500BF32221C
:105510006946154802F041FDC5B2002D17D013A110
:105520006846FAF713FF10B114A002F00FFB19A19F
:105530006846FAF70BFF28B11AA002F007FB01201A
:105540000DB030BD32220021684602F048FC4FF415
:105550007A7003F073F9201EA4F10104D7D117A0CB
:1055600002F0F4FA0020EBE7B00300202B514C5777
:10557000455654494E443A30000000007265676950
:105580007374726174696F6E20737563636573738E
:105590000D0A00002B514C57455654494E443A339E
:1055A000000000006F62736572766564206F626A46
:1055B000656374203139206F6B0D0A006175746F5B
:1055C00020726567697374726174696F6E206661B9
:1055D000696C65642E2E2E0D0A00000070B504461D
:1055E0000D4600F0C5FF002070BD70B504460D46A5
:1055F00001F01CF9002070BD2DE9FC4100260024BB
:10560000002500BF38E004EB44001D4901EBC00059
:10561000406904EB44011A4A02EBC101097C04EB26
:10562000440794460CEBC707CDE90010FB6804EB78
:1056300044070CEBC707BA6804EB44070CEBC70739
:10564000796804EB44075CF8370003F022F805465C
:105650000DB9BDE8FC81284603F040F9C6B246B951
:1056600004EB4400064A52F8301006A002F06EFA2D
:1056700000E0EEE7601CC4B2022CC4D300BFE8E730
:105680000800002025732062656761696E2E2E2E4A
:105690002E2E0D0A0000000030B585B004460D46E0
:1056A000002004900390022C1BDA012204A90E486A
:1056B000FCF70DFE012203A90B48FCF7DFFD9DF866
:1056C00012009DF811109DF81020CDE900210290E4
:1056D0009DF80E309DF80D209DF80F1003A002F0EC
:1056E00035FA05B030BD0000BC0300203230253053
:1056F00032782D253032782D253032782025303201
:10570000783A253032783A253032780D0A00000098
:10571000014600220A2901DA084670470A2091FB57
:10572000F0F000EB400001EB4000C2B21046F4E79D
:1057300070B588B005460E4600200490059006908E
:10574000079034460122214603A8FEF7FBFAA41C69
:105750009DF80C00062801D0022007900222214665
:1057600002A8FEF7EFFABDF80800FFF70FFC029061
:10577000241D0222214605A8FEF7E4FABDF8140014
:10578000FFF704FCADF81400241D0222214601A8F5
:10579000FEF7D8FABDF80400FFF7F8FB0190241DCE
:1057A0002046FAF7F1FDBDF80410B0EB410F07D227
:1057B0000420079004A80FC885E80F0008B070BD4A
:1057C000BDF8080041F6417188420ED132A0049024
:1057D000042001F0D9FA06900021069801602046C5
:1057E000069900F081FB079050E0BDF8080041F6F3
:1057F000447188420ED12EA00490022001F0C4FA18
:1058000006900021069801802046069901F066FB6B
:1058100007903BE0BDF8080041F6427188420ED186
:1058200028A00490012001F0AFFA0690002106980C
:1058300001702046069903F0D0FB079026E0BDF8E2
:10584000080041F6437188420ED121A00490022045
:1058500001F09AFA069000210698018020460699E8
:1058600003F0D5FB079011E000200490BDF8040080
:1058700001F08AFA0690002106980180BDF8042004
:1058800021460698FEF75EFA0320079004A80FC889
:1058900085E80F0000BF91E76765745F706F7765FB
:1058A000725F636F6E73756D7074696F6E00000068
:1058B0006D6F746F725F73706565645F636F6E7434
:1058C000726F6C007365745F6F6E6F6666000000C8
:1058D0007365745F7265706F727474696D650000D2
:1058E00010B51448006890F82100C0F3400020B9BA
:1058F000002011490870084610BD1048006838B1F2
:1059000080220E4801680C48FAF732FD0A48F3E796
:1059100001F0F6FB20B10AA10748FAF73CFD03E0CD
:1059200009A10548FAF737FD09A10348FAF702FD76
:105930000148E1E74C010020C81800205001002078
:105940006D7368200000000066696E7368200000B7
:105950003E00000010B501F027FF10BD05490968A1
:1059600091F8211060F34101024A126882F8211077
:10597000704700004C010020024A1060024A11608A
:10598000704700003C010020400100207CB500254C
:1059900016491748FFF7F0FF7821012001F00EFEAD
:1059A000144908600846006820B913A002F0CEF838
:1059B000681E7CBD0A20062183010022CDE900106B
:1059C000134914A002F065FE044600231A4613A1F1
:1059D0000848006802F0AEFC0120FFF7BFFF1CB1D1
:1059E00015B9204602F07AFF0020E2E73097000860
:1059F000709600084C0100206E6F206D656D6F720F
:105A00007920666F72207368656C6C0A0000000074
:105A1000255A0008747368656C6C000073687278AE
:105A200000000000E948006890F8210020F0010023
:105A3000401CE649096881F82100FFF751FF05463F
:105A400002F084F8C1E1FFF785FF0446002C00DA7C
:105A5000BBE11B2C05D10120DC49096881F820003D
:105A6000B3E1DA48006890F8200001280DD15B2CE2
:105A700005D10220D549096881F82000A5E1002060
:105A8000D249096881F8200045E0D048006890F8C4
:105A9000200002283FD10020CC49096881F820006D
:105AA000412C00D191E1422C00D18EE1442C11D146
:105AB000C6480068B0F8740058B1C5A002F046F8B6
:105AC000C2480068B0F87400401EC0490968A1F8D7
:105AD00074007AE1432C1ED1BC480068B0F8740011
